:1000000018C032C031C030C030C02EC02DC02CC08E
:10001000D7C02AC029C028C027C026C025C024C0F8
:1000200023C022C021C07E306D79335B1F707F7387
:10003000260011241FBECFE5D4E0DEBFCDBF11E006
:10004000A8E6B1E001C01D92AF36B107E1F711E0BB
:10005000A0E6B0E0E6E9F2E102C005900D92A83614
:10006000B107D9F7C0D115C9CBCF1F920F920FB6E8
:100070000F9211246F937F938F939F9380916C01C4
:100080008F5F80936C0180916C018C3338F01092FB
:100090006C0180916D018F5F80936D0180916D0186
:1000A0008C3338F010926D0180916E018F5F8093D8
:1000B0006E0180916B018130C1F480916D018823C4
:1000C00049F480916C016AE08CD88093680180913A
:1000D0006C0108C080916D016AE083D8809368014B
:1000E00080916D017ED8909369019F918F917F914E
:1000F0006F910F900FBE0F901F901895AF92BF9207
:10010000CF92DF92EF92FF920F931F93979A90E016
:10011000A0E0B0E0BC01CD01FAD55B016C0120E0AC
:1001200030E04AEF54E42CD47B018C0120E030E035
:1001300040E85FE370D588231CF461E070E020C0E4
:10014000C801B70120E03FEF4FE757E40ED518167E
:10015000A4F4C601B50120E030E040E251E410D43F
:100160004BD288EC90E005C0FC013197F1F761506B
:10017000704061157105C1F706C0C801B7013CD2D6
:10018000CB010197F1F797981F910F91FF90EF9096
:10019000DF90CF90BF90AF90089510926C011092B5
:1001A0006D0110926E01109268011092690108951C
:1001B000C298C098939891989298C19894980895ED
:1001C0001F920F920FB60F9211242F933F934F93CC
:1001D0005F936F937F938F939F93AF93BF93EF93AF
:1001E000FF93789480916A01882309F05DC0E0DF75
:1001F000C398909A80916801882331F4C29AC09A7A
:10020000939A919A929AC19A80916801813011F4DF
:10021000C09A939A80916801823029F4C29AC09A58
:10022000919A929A949A80916801833029F4C29AA3
:10023000C09A939A919A949A80916801843021F49B
:10024000C09A939AC19A949A80916801853029F452
:10025000C29A939A919AC19A949A80916801863031
:1002600029F4939A919A929AC19A949A80916801EA
:10027000873019F4C29AC09A939A809168018830A5
:1002800039F4C29AC09A939A919A929AC19A949A7E
:1002900080916801893029F4C29AC09A939AC19AD0
:1002A000949A809168015FC0813009F05FC080DF5F
:1002B0009098C39A80916901882331F4C29AC09AB8
:1002C000939A919A929AC19A80916901813011F41E
:1002D000C09A939A80916901823029F4C29AC09A97
:1002E000919A929A949A80916901833029F4C29AE2
:1002F000C09A939A919A949A80916901843021F4DA
:10030000C09A939AC19A949A80916901853029F490
:10031000C29A939A919AC19A949A8091690186306F
:1003200029F4939A919A929AC19A949A8091690128
:10033000873019F4C29AC09A939A809169018830E3
:1003400039F4C29AC09A939A919A929AC19A949ABD
:1003500080916901893029F4C29AC09A939AC19A0E
:10036000949A809169018F3F09F422DF80916A019C
:100370008F5F80936A01823010F010926A01FF91C2
:10038000EF91BF91AF919F918F917F916F915F910D
:100390004F913F912F910F900FBE0F901F90189586
:1003A00082B5886082BD85E085BD89B7806489BFDC
:1003B00089B7846089BF8EB581608EBDA59A8F9AFA
:1003C000BC98C49ABD98C59A889ABB9ABA9AB89AAA
:1003D0008B9A899A8A9AB99A8C9AAD98979890989C
:1003E000C398E6DE08955F926F927F928F929F92FC
:1003F000AF92BF92CF92DF92EF92FF920F931F9333
:10040000DF93CF930F92CDB7DEB78AE08983C8DF41
:100410008AE090E029D789837894992428ECA22E49
:10042000B12C90E4C92E9CE9D92E5524539480ED2B
:10043000682E87E0782E88248A9480916B01882327
:1004400059F410926C0110926D0110926E0110928D
:1004500068011092690126C090916D0189819817F9
:1004600009F510926B01AD98109268011092690124
:1004700088EE44DE88EE42DE88E893E1F5013197AC
:10048000F1F70197D9F788EE39DE88EE37DE88E894
:1004900093E1F5013197F1F70197D9F788EE2EDE58
:1004A00088EE2CDEB49926C080916B01882311F56B
:1004B000C6010197F1F784E621DE89816AE091D6D1
:1004C0008093680189818DD69093690180E197E2DC
:1004D000F5013197F1F70197D9F750926B0110921E
:1004E0006C0110926D0110926E01109268011092D1
:1004F0006901AD9AB59918C080916B018130A1F462
:10050000C6010197F1F7B59BFECF10926B011092D7
:100510006C0110926D0110926E01109268011092A0
:10052000690184E6EBDDAD98B59987CF80916B01C9
:10053000882309F082CFC6010197F1F784E6DEDD5A
:10054000B4990BC0C6010197F1F784E6D7DD898124
:10055000882319F0898181508983B5992DC0C601FE
:100560000197F1F784E6CADDEE24FF24870113C06A
:100570000894E11CF11C011D111DC3010197F1F745
:1005800088EEE81683E0F80680E0080780E01807A8
:1005900011F484E6B3DDB59BEBCF89EEE81683E07A
:1005A000F80680E0080780E0180708F5898183369F
:1005B00018F489818F5F8983992039F480926801CA
:1005C00080926901992493940AC089816AE009D6CE
:1005D00080936801898105D690936901992488EEFA
:1005E00093E0F5013197F1F70197D9F7A9CF698128
:1005F0008AE090E041D621CFEF92FF920F931F93B4
:100600007B018C0120E030E040E05FE4D9D2882318
:100610007CF0C801B70120E030E040E05FE45ED14B
:1006200025D39B01AC01205030404040504805C0CC
:10063000C801B7011BD39B01AC01B901CA011F91CD
:100640000F91FF90EF900895A0E0B0E0E9E2F3E0B1
:10065000D4C5DC012B01FA019C91923008F439C118
:10066000EB018881823008F433C1943069F484301E
:1006700009F02FC111969C9111978981981709F45F
:1006800028C1A0E6B0E025C1843009F421C1823040
:10069000A9F4923009F01DC19A01AD0188E0EA0188
:1006A0000990AE01E90109929E018150C1F7E20172
:1006B000898111969C918923818308C1923009F424
:1006C00007C112962D903C901397EB018A819B8174
:1006D0001496AD90BD90CD90DC901797EC80FD8086
:1006E0000E811F819101281B390BB90137FF04C00E
:1006F00066277727621B730B603271050CF061C0AF
:10070000121613066CF537014801062E04C09694A4
:100710008794779467940A94D2F721E030E040E020
:1007200050E004C0220F331F441F551F6A95D2F7B3
:1007300021503040404050402E213F214023512342
:10074000211531054105510521F021E030E040E05F
:1007500050E079018A01E628F728082919293CC0C8
:10076000232BD1F1260E371E35014601062E04C07B
:1007700096948794779467940A94D2F721E030E0B6
:1007800040E050E004C0220F331F441F551F6A95FC
:10079000D2F721503040404050402A213B214C218B
:1007A0005D21211531054105510521F021E030E0A1
:1007B00040E050E059016A01A628B728C828D92886
:1007C0000BC0821593052CF01C01AA24BB246501E3
:1007D00003C0EE24FF24870111969C91D20111964B
:1007E0008C91981709F445C0992339F0A801970115
:1007F0002A193B094C095D0906C0A60195012E196D
:100800003F09400B510B57FD08C0118233822282F1
:1008100024833583468357831DC081E081833382DF
:10082000228288279927DC01821B930BA40BB50B2E
:1008300084839583A683B7830DC0220F331F441F83
:10084000551F248335834683578382819381019783
:10085000938382832481358146815781DA01C901DE
:100860000197A109B1098F5F9F4FAF4FBF4328F395
:100870000BC0918333822282EA0CFB1C0C1D1D1DD0
:10088000E482F5820683178383E0808324813581A7
:100890004681578157FF1AC0C901AA2797FDA09525
:1008A000BA2F81709070A070B070569547953795AB
:1008B0002795822B932BA42BB52B84839583A6831A
:1008C000B78382819381019693838283DF0101C084
:1008D000D201CD01CDB7DEB7E2E1ABC4A0E2B0E01A
:1008E000E3E7F4E096C469837A838B839C832D834A
:1008F0003E834F835887E9E0EE2EF12CEC0EFD1E6F
:10090000CE010196B7019CD38E010F5E1F4FCE0121
:100910000596B80195D38A8991E089278A8BC7010A
:10092000B801AE01475E5F4F8FDEB5D2A096E6E01C
:100930008CC4A0E2B0E0EEE9F4E06BC469837A8392
:100940008B839C832D833E834F835887F9E0EF2E62
:10095000F12CEC0EFD1ECE010196B70171D38E0174
:100960000F5E1F4FCE010596B8016AD3C701B801CB
:10097000AE01475E5F4F68DE8ED2A096E6E065C4AA
:10098000A0E2B0E0E5ECF4E038C469837A838B83BD
:100990009C832D833E834F835887CE010196BE01F1
:1009A000675F7F4F4DD3CE010596BE016F5E7F4FCF
:1009B00047D39985923088F089898230C8F0943085
:1009C00019F4823051F404C0843029F4923081F457
:1009D00080E690E0C6C0923049F420E09A858A898A
:1009E000981321E02A87CE010996BBC0823049F4D2
:1009F00020E09A858A89981321E02A8BCE014196BE
:100A0000B0C02D843E844F8458886D887E888F883E
:100A1000988CEE24FF248701AA24BB24650140E0C2
:100A200050E060E070E0E0E0F0E0C10181709070C3
:100A3000892BE9F0E60CF71C081D191D9A01AB0182
:100A40002A0D3B1D4C1D5D1D80E090E0A0E0B0E054
:100A5000E614F7040805190520F481E090E0A0E011
:100A6000B0E0BA01A901480F591F6A1F7B1FAA0CE9
:100A7000BB1CCC1CDD1C97FE08C081E090E0A0E010
:100A8000B0E0A82AB92ACA2ADB2A3196E032F10559
:100A900049F0660C771C881C991C5694479437942F
:100AA0002794C3CFFA85EA892B893C898B859C855D
:100AB000280F391F2E5F3F4F17C0CA0181709070F9
:100AC000892B61F016950795F794E79480E090E004
:100AD000A0E0B0E8E82AF92A0A2B1B2B7695679547
:100AE000579547952F5F3F4F77FDE7CF0CC0440FD9
:100AF000551F661F771F17FD4160EE0CFF1C001F7E
:100B0000111F21503040403090E0590790E06907B4
:100B100090E4790760F32B8F3C8FDB01CA018F775C
:100B20009070A070B07080349105A105B10561F49A
:100B300047FD0AC0E114F1040105110529F0405CEC
:100B40005F4F6F4F7F4F40781A8EFE1711F081E094
:100B50008A8F4D8F5E8F6F8F78A383E0898FCE0150
:100B6000499699D1A096E2E164C3A8E1B0E0EAEB2E
:100B7000F5E04FC369837A838B839C832D833E8307
:100B80004F83588789E0E82EF12CEC0EFD1ECE0134
:100B90000196B70155D28E010F5E1F4FCE0105960B
:100BA000B8014ED28985823038F08989823020F0B0
:100BB000C701B801BDD201C08FEF6896E6E045C31A
:100BC000A8E1B0E0E5EEF5E024C369837A838B8386
:100BD0009C832D833E834F83588789E0E82EF12C38
:100BE000EC0EFD1ECE010196B7012AD28E010F5EDA
:100BF0001F4FCE010596B80123D28985823038F087
:100C00008989823020F0C701B80192D201C08FEFEC
:100C10006896E6E01AC3A8E1B0E0E0E1F6E0F9C2C8
:100C200069837A838B839C832D833E834F8358878C
:100C300089E0E82EF12CEC0EFD1ECE010196B701E5
:100C4000FFD18E010F5E1F4FCE010596B801F8D17E
:100C50008985823038F08989823020F0C701B80157
:100C600067D201C081E06896E6E0EFC2ACE0B0E098
:100C7000EBE3F6E0D2C269837A838B839C83CE0157
:100C80000196BE016B5F7F4FDBD18D81823061F1B8
:100C9000823050F1843021F48E81882351F12EC0AE
:100CA0002F81388537FD20C06E812F3131051CF032
:100CB0006623F9F023C08EE190E0821B930B298517
:100CC0003A854B855C8504C05695479537952795A1
:100CD0008A95D2F76623B1F05095409530952195CD
:100CE0003F4F4F4F5F4F0EC020E030E040E050E0FC
:100CF00009C02FEF3FEF4FEF5FE704C020E030E087
:100D000040E050E8B901CA012C96E2E0A2C2A8E096
:100D1000B0E0ECE8F6E079C27B018C016115710569
:100D20008105910519F482E089835FC083E089839E
:100D30008EE1C82ED12CDC82CB82ED82FE820F8325
:100D40001887C801B70158D0FC013197F7FF3BC0A5
:100D5000222733272E1B3F0B57016801022E04C0A8
:100D6000D694C794B794A7940A94D2F740E050E081
:100D700060E070E081E090E0A0E0B0E004C0880FA7
:100D8000991FAA1FBB1F2A95D2F70197A109B10984
:100D90008E219F21A023B1230097A105B10521F049
:100DA00041E050E060E070E04A295B296C297D2930
:100DB0004D835E836F8378878EE190E08E1B9F0B5F
:100DC0009C838B8312C0309781F00E2E04C0EE0CF2
:100DD000FF1C001F111F0A94D2F7ED82FE820F83C1
:100DE0001887CE1ADF0ADC82CB821A82CE010196E6
:100DF00052D02896EAE025C2EF92FF920F931F93FC
:100E00007B018C0180E0E81680E0F80681E00807AD
:100E100080E0180788F48FEFE816F104010511054A
:100E200031F028F088E090E0A0E0B0E017C080E06A
:100E300090E0A0E0B0E012C080E0E81680E0F806A4
:100E400080E0080781E0180728F088E190E0A0E042
:100E5000B0E004C080E190E0A0E0B0E020E230E04B
:100E600040E050E0281B390B4A0B5B0B04C0169581
:100E70000795F794E7948A95D2F7F701E859FF4F61
:100E80008081281B310941095109C9011F910F9126
:100E9000FF90EF900895DF92EF92FF920F931F93D0
:100EA000FC01E480F58006811781D1808081823049
:100EB00048F480E090E0A0E1B0E0E82AF92A0A2BAB
:100EC0001B2BA5C0843009F49FC0823021F4EE248E
:100ED000FF24870105C0E114F1040105110519F48F
:100EE000E0E0F0E096C0628173819FEF623879079D
:100EF0000CF05BC022E83FEF261B370B2A3131058F
:100F00002CF020E030E040E050E02AC0B801A7011A
:100F1000022E04C076956795579547950A94D2F7A7
:100F200081E090E0A0E0B0E004C0880F991FAA1F04
:100F3000BB1F2A95D2F70197A109B1098E219F21E4
:100F4000A023B1230097A105B10521F081E090E035
:100F5000A0E0B0E09A01AB01282B392B4A2B5B2B88
:100F6000DA01C9018F779070A070B070803491055C
:100F7000A105B10539F427FF09C0205C3F4F4F4F51
:100F80005F4F04C0215C3F4F4F4F5F4FE0E0F0E008
:100F90002030A0E03A07A0E04A07A0E45A0710F08A
:100FA000E1E0F0E079018A0127C06038710564F55D
:100FB000FB01E158FF4FD801C7018F779070A070F7
:100FC000B07080349105A105B10539F4E7FE0DC07C
:100FD00080E490E0A0E0B0E004C08FE390E0A0E007
:100FE000B0E0E80EF91E0A1F1B1F17FF05C016957B
:100FF0000795F794E794319687E016950795F7944F
:10100000E7948A95D1F705C0EE24FF248701EFEF1E
:10101000F0E06E2F679566276795902F9F77D7949E
:10102000DD24D7948E2F8695492F462B582F5D2986
:10103000B701CA011F910F91FF90EF90DF900895C3
:10104000FC01DB01408151812281622F6F7770E0CA
:10105000221F2227221F9381892F880F822B282F5E
:1010600030E0991F9927991F11969C93119721158C
:101070003105A9F5411551056105710511F482E0AD
:1010800037C082E89FEF13969C938E9312979A0134
:10109000AB0167E0220F331F441F551F6A95D1F73C
:1010A00083E08C930DC0220F331F441F551F1296EF
:1010B0008D919C911397019713969C938E93129701
:1010C000203080E0380780E0480780E4580758F374
:1010D00014962D933D934D935C93179708952F3F4E
:1010E000310579F4411551056105710519F484E064
:1010F0008C93089564FF03C081E08C9312C01C920E
:1011000010C02F57304013963C932E93129783E0D4
:101110008C9387E0440F551F661F771F8A95D1F780
:10112000706414964D935D936D937C931797089517
:101130001F93DC01FB019C91923008F447C0808131
:10114000823008F443C0943051F411961C918430DD
:1011500099F58181682F70E0611B71093FC084306F
:1011600021F0923031F48230B9F18181882389F104
:101170002DC011961C9111978230F1F081811817C2
:10118000D9F412962D913C91139782819381821705
:10119000930794F028173907BCF014968D919D9110
:1011A0000D90BC91A02D248135814681578128174F
:1011B00039074A075B0718F4112341F00AC0821768
:1011C0009307A407B50740F4112319F061E070E01C
:1011D00005C06FEF7FEF02C060E070E0CB011F91B0
:1011E0000895991B79E004C0991F961708F0961B83
:1011F000881F7A95C9F7809508952F923F924F9254
:101200005F926F927F928F929F92AF92BF92CF9296
:10121000DF92EF92FF920F931F93CF93DF93CDB79F
:10122000DEB7CA1BDB0B0FB6F894DEBF0FBECDBF17
:1012300009942A88398848885F846E847D848C84E8
:101240009B84AA84B984C884DF80EE80FD800C81F1
:101250001B81AA81B981CE0FD11D0FB6F894DEBFD4
:101260000FBECDBFED010895E199FECF9FBB8EBBB0
:10127000E09A99278DB30895262FE199FECF9FBB61
:101280008EBB2DBB0FB6F894E29AE19A0FBE019681
:061290000895F894FFCF61
:101296000000000000000000000102020303030337
:1012A60004040404040404040505050505050505F0
:1012B60005050505050505050606060606060606D0
:1012C60006060606060606060606060606060606B8
:1012D60006060606060606060707070707070707A0
:1012E6000707070707070707070707070707070788
:1012F6000707070707070707070707070707070778
:101306000707070707070707070707070707070767
:10131600070707070707070708080808080808084F
:101326000808080808080808080808080808080837
:101336000808080808080808080808080808080827
:101346000808080808080808080808080808080817
:101356000808080808080808080808080808080807
:1013660008080808080808080808080808080808F7
:1013760008080808080808080808080808080808E7
:1013860008080808080808080808080808080808D7
:0813960008080808080808080F
:00000001FF
